:020000040800F2
:1000000000000820FD2C0008312D0008312D0008CB
:10001000312D0008312D0008312D000800000000AE
:10002000000000000000000000000000C50E0008F5
:10003000312D0008000000005B0F00086B0F000866
:10004000312D0008312D0008312D0008312D000818
:10005000312D0008312D0008312D0008312D000808
:10006000312D0008312D0008312D0008312D0008F8
:10007000312D0008312D0008312D0008312D0008E8
:10008000312D0008312D0008312D000805460008EB
:10009000F9450008312D000809460008312D0008F7
:1000A000312D0008312D0008312D0008312D0008B8
:1000B000312D0008312D0008312D0008312D0008A8
:1000C000312D0008312D0008312D0008312D000898
:1000D000312D0008312D0008312D0008312D000888
:1000E000312D0008312D0008312D0008312D000878
:1000F000312D0008312D0008312D0008312D000868
:10010000312D0008312D0008312D0008312D000857
:10011000312D0008312D0008312D0008312D000847
:10012000312D0008312D0008312D0008312D000837
:10013000312D000881030008312D00081946000800
:100140000D460008312D00081D460008312D00081D
:10015000312D0008312D0008312D0008312D000807
:10016000312D0008312D0008312D0008312D0008F7
:10017000312D0008312D0008312D0008000000004D
:10018000312D0008312D0008312D0008312D0008D7
:10019000312D0008312D0008312D0008312D0008C7
:1001A000312D0008312D0008312D0008312D0008B7
:1001B000312D0008312D0008312D0008312D0008A7
:1001C000312D0008312D000800000000312D0008FD
:1001D000312D0008312D0008312D0008312D000887
:1001E0002D46000821460008312D00083146000840
:1001F000312D0008312D00080348044B834202D002
:10020000034B03B1184770476C0C00206C0C0020A6
:100210000000000005480649091A891001EBD17158
:10022000491002D0034B03B1184770476C0C0020F3
:100230006C0C00200000000010B5064C237843B978
:10024000FFF7DAFF044B13B10448AFF3008001233A
:10025000237010BD700C00200000000068A800088A
:1002600008B5044B1BB104490448AFF30080BDE856
:100270000840CFE700000000740C002068A80008C8
:10028000134B002B08BF114B9D46A3F5803A00216C
:100290008B460F461148124A121A05F0CFFD0D4B3E
:1002A000002B00D098470C4B002B00D09847002023
:1002B000002104000D000B4800F0ADFC05F084F9AE
:1002C0002000290000F068FD00F0A2FC00000800FA
:1002D0000000082000000000A90D0008700C00209C
:1002E000405B00206D52000800207047C36810B5C5
:1002F00004460BB19B689847204610BD38B50446AC
:1003000048B100F15805AC4205D02C3D05F118006C
:10031000FFF7ECFFF7E7204638BD38B50025044667
:100320002822294640F8045B05F088FD1022294662
:1003300004F1180005F082FD204638BD10B50A4CC6
:100340002046FFF7EAFF04F12C00FFF7E6FF002349
:100350002046064AA3650649E36584F86030BDE897
:10036000104000F053BC00BF8C0C0020F8010020AE
:10037000FD020008014800F009B800BFF00C0020A1
:10038000014802F00BBD00BF6445002008B50068BD
:1003900001F036FE18B1BDE8084000F06DBA08BDA6
:1003A00008B5034805F0ACFF024B186008BD00BF5C
:1003B000F09D0008140D002038B504460D46036872
:1003C0005AB1826820461360012104F01FFA2946C1
:1003D0002046BDE8384004F015BAC2681B04F1E7B6
:1003E00070B50E460446154604F0ECF9013606D009
:1003F0002A4620460021BDE87040FFF7DDBF70BDF2
:100400000022FFF7EDBF000010B5044601300DD10A
:1004100010BDA34209D12046896804F02BFB204679
:100420000021BDE8104004F0BFBB0C31B1F9003031
:100430005A1CEED10248BDE8104000F0E9BA00BFF6
:100440004A9E0008884208B508D0431C06D00131F6
:1004500006D0044800F0DCFA4FF0FF31084608BD32
:100460000146FBE7199E0008B1F900305A1C01D182
:1004700018467047834201D1486870470C31F3E752
:10048000421C10B5044607D0FFF7EEFF431C04469C
:1004900002D1024800F0BCFA204610BD2A9E000896
:1004A00008B500F051FA094B1A884FF6FF739A42CB
:1004B00004D100F075FA064800F0AAFA01210348B9
:1004C00000F08CFABDE8084000F06ABA180D002070
:1004D0005B9E000808B500F037FA084B1B8823B96B
:1004E00000F05EFA064800F093FA0121034800F09C
:1004F00082FABDE8084000F053BA00BF180D002092
:10050000889E000808B500F01FFA064B1B882BB91F
:1005100004F000FCBDE8084000F042BA04F0EAFB39
:10052000F8E700BF180D00202DE9F84FD0E900349E
:1005300005465B6898476B681B6A83423CD0236A18
:100540004FF00009E268C31A2062A66828481340E9
:100550008642984628D0A3FB0023B6F5004FD4E985
:100560000AAB1046194629D147F6FF764FEAD23832
:1005700000274FEAD139304048EA414839401AEB68
:1005800000024BEB01039F4208BF964202D3C4E92D
:100590000A2309E018F1010849F10009B2F5004AFF
:1005A00043F1FF3BC4E90AABD4E90C0110EB0802AC
:1005B00041EB0903C4E90C23BDE8F88F002732465C
:1005C0003B4609F089FA804612EB0A00894643EB64
:1005D0000B01B94208BFB04202D2C4E90A01E3E705
:1005E00018F1010849F10009821B61EB0703CEE70E
:1005F00040420F00824206D98A420BD9884294BFFA
:10060000002001207047884206D98A428CBF002012
:100610000120704701207047002070472DE9F14FFD
:100620008046D0F80490FFF77FFFD8F80450D8F840
:1006300000A0696800294BD0D5E90C23D1E90067F7
:10064000BB4208BFB24205D3DAF8143001B0BDE8AE
:10065000F04F1847B61A2C6967EB0307D5E9062354
:10066000BB4208BFB24206D3AB68224A934219D1BB
:10067000B44228BF34462A6ADAF810301444EA68D3
:10068000144020469847D8F800305B6898472246C7
:100690000146D9F82000FFF7ADFF38B3D8F8003095
:1006A0005B69D3E7B3F5004F0BD1F903114A00237F
:1006B000F00341EA564109F00FFA844228BF04468C
:1006C000D9E7A3FB06010B4A03FB07110023F2E75E
:1006D000D9F81030D9F82000D9F80C201844DAF8ED
:1006E0001030104001B0BDE8F04F184701B0BDE830
:1006F000F08F00BF40420F00436893F838302DE977
:10070000F0470446002B54D103681B6898472368C0
:100710009B699847D0F800900546B9F1000F06D1C3
:10072000DFF89C9029222449244800F093F86D6852
:100730002B1F1C2B05D920252F221F491F4800F0F5
:1007400089F82B1F4FF0070819F1FF301C4E08FAEB
:1007500003F84FF000034A4643F1FF31C6FB08019E
:1007600009F0BAF9D4F804A000230F460646CAE9F6
:10077000003323685B689847CAF82000012061684D
:100780000022002300FA05F5C1F8089081F838002E
:100790002046013DC1E90667C1E90358C1E90A23C2
:1007A000C1E90C23FFF7C0FE2046BDE8F047FFF784
:1007B00035BFBDE8F08700BFAE9E0008CF9E0008A1
:1007C00040420F00036870B5DB68044698476368D1
:1007D0005B68A3B12046FFF7A7FE65686E68D5E9A0
:1007E0000C01D6E90023994208BF904207D3F36871
:1007F0006B602B68002BEAD0B0689847E7E720468B
:10080000BDE87040FFF70ABF10B50446FFF774FF5C
:100810002046FFF789FE6368D3E90C0110BD08B5D7
:10082000FFF7F2FF08BD000000487047D49E0008A3
:10083000024B1B680BB1024818477047FC010020AF
:10084000D49E000804F0E4BE05F042BB04F078BD7D
:1008500004F0B4BA70B504460D46164600F074F8BC
:100860002A4621463346034800F05AF8BDE8704056
:1008700000F002B8F89E000810B588B000F064F8E7
:10088000102101A8FFF7BCFD0424039B9620019AC8
:100890001A6000F0EEF9019B049A96201B04136085
:1008A00000F0E7F9013CF0D10424039B4FF4C87039
:1008B000019A1A6000F0DDF9019B049A4FF4C870A8
:1008C0001B04136000F0D5F9013CEED1DCE7000019
:1008D00070B50D46A0B0044600F036F82B468021D6
:1008E0002246684606F09AFF051E11DD0A4B1B687A
:1008F00023B939223821094803F0B2FC0024074EFD
:100900001DF804100134304603F0E8FDA542F7D18C
:1009100000F046F820B070BDD814002038570020F1
:100920000FB407B504A951F8040B0191FFF7D0FFEC
:1009300003B05DF804EB04B07047EFF31080C043E0
:1009400000F001007047000038B5FFF7F6FF0546DC
:1009500072B60E4C236823B980F001030C4ADBB257
:1009600013702368013304D143220A490A48FFF770
:1009700071FF23682BB125B1472206490748FFF7CD
:1009800069FF23680133236038BD00BF640D002078
:10099000600D0020299F00084D9F0008739F0008EC
:1009A00010B50A4C236883B1FFF7C7FF20B1582266
:1009B00007490848FFF74EFF2368013B236023687F
:1009C0001BB9054B1B7803B962B610BD640D00203E
:1009D000299F0008739F0008600D002038B5054668
:1009E0000C46FFF7B1FF29880C44A4B22C80FFF716
:1009F000D7FF204638BD70B505460E46FFF7A4FF69
:100A00002C88A41BA4B22C80FFF7CAFF204670BD1F
:100A10000FB4094B13B51A784AB9012405A90498F3
:100A20001C700191FFF754FF204600F0F1F802B06E
:100A3000BDE8104004B07047680D002008B5084BB1
:100A40001B685BB938210748392203F009FC4FF4D1
:100A500016510448BDE8084003F02ABD08BD00BF98
:100A6000D814002038570020022810B501DC0020DF
:100A700010BDC31E0B4A002152F8230042F8231078
:100A800030B904F0CFF9092303604FF0FF30EFE7EE
:100A900003685B699847041EE9DA644204F0C2F90E
:100AA0000460F2E76C0D00200228F8B50D461446EC
:100AB0000EDC134B1B680BB9FFF7C0FF2F19114E4B
:100AC000BD4210D015F8011B304603F007FDF7E7D3
:100AD00003380D4B53F8200038B904F0A3F94FF058
:100AE000FF34092303602046F8BD0368DB6898479C
:100AF000041EF8DA04F096F963420360F3E700BFDE
:100B0000D8140020385700206C0D0020022810B5A2
:100B10000C460BDC104B1B680BB9FFF78FFF0F481F
:100B200003F0CAFC20700124204610BD03380C4B92
:100B300053F8200030B904F075F909234FF0FF3461
:100B40000360F1E703689B689847041EECDA04F041
:100B500069F963420360E7E7D814002038570020A2
:100B60006C0D0020022810B507DC04F05BF91D2392
:100B700003604FF0FF34204610BD0338084B53F894
:100B8000200018B904F04EF90923F1E703681B6946
:100B90009847041EEFDA644204F044F90460E8E781
:100BA0006C0D00200C4B1A6810B51044EFF308814F
:100BB000884206D30C22094B1A604FF0FF321046D0
:100BC00010BD07490C6824B10649096821448842D0
:100BD000F0D21860F3E700BF000200203C5B002069
:100BE0006C0E0020700E0020074C054608B52368E7
:100BF000986804F02DFA2368D86804F029FA0DB13A
:100C0000FFF73AFEFEE700BFB00200200120704768
:100C100008B5FFF7E9FF0120704708B500F0E4F8D8
:100C200008BD08B500F0E8F808BD000000487047AE
:100C3000889F0008F8B505464FF47A74FFF7F4FD75
:100C40000746FFF7ECFD064695FBF4F4002C09DDA2
:100C5000FFF773FE30B1FFF723FC204601F08AFF57
:100C6000FFF738FC3846FFF7DAFD801BA842F9D3BE
:100C7000F8BD4FF47A735843FFF7DCBF38B5154819
:100C80000B25154B1C2445600360144BC460836026
:100C900001F006F9124B18601248134BC460C0E90A
:100CA0000035124B836001F0FBF8114B18601148BE
:100CB000114BC460C0E90035104B836001F0F0F8BF
:100CC0000F4B186004F080FC0021BDE83840084656
:100CD00000F062B8EC560020B89F0008B45600201F
:100CE000B0560020A0560020C89F0008D056002013
:100CF0007846002020570020D59F00088456002009
:100D0000805600200A4A0B48C2F1005303F5002325
:100D1000B3F5806F194628BF4FF480615B1A0160FC
:100D200005499818086005490B60054B1A60704723
:100D3000405B0020740E0020780E00206C0E002016
:100D4000700E00207047000008B50D4A00210D4BC1
:100D50000D4813614FF4805353614823D3600B4B0C
:100D60009360182393610A4B136001F01DFE10B9C4
:100D70000848FFF74DFEBDE8084000F0DBBA00BFB1
:100D8000FC560020804600207D0C000830460020E4
:100D9000909F00089C9F000808B5FFF7D3FFBDE8AF
:100DA0000840FFF7A1BA000008B5FFF7ABFF0C4BF6
:100DB0000C4998684FF00053C21802F16042126863
:100DC00043F8042B8B42F7D1054B4FF000529A6049
:100DD00003F0E8FD00F064FABDE80840FFF7B4BF97
:100DE00000ED00E0C8010020024B4FF0FF31186811
:100DF00001F082B878460020014B186801F09AB8DB
:100E00007846002008B500F055F8FCE705460C468A
:100E100008B501F0E5FD6B1E0246042B24D8DFE87F
:100E200003F0030D13191E00204601F0C1FD2246F8
:100E3000034601210F48FFF7EBFDFEE723460221A1
:100E40000D48FFF7E5FDF8E7234603210B48FFF7C0
:100E5000DFFDF2E704210A48FFF7DAFDEDE705219F
:100E60000848FFF7D5FDE8E729460748FFF7D0FD1A
:100E7000E3E700BFDF9F000830A0000886A000085D
:100E8000EBA0000846A10008A6A1000808B501F0E3
:100E9000A7FDBDE8084001F065BE08B5FFF754FDA9
:100EA000FFF7FEFAFFF72EFBFFF714FBBDE8084043
:100EB000FFF776BD024C08B523689847FCE700BFF2
:100EC00004020020EFF30980816911F8021CB9BB0C
:100ED00001B590E80F10E047BDE800508CE8030032
:100EE000264B93E80600914208BF704741B91EF0B7
:100EF000100F10D12249086820F0010008600AE0B4
:100F00002CE9F00F1EF0100F08BF2CED108AC1F86D
:100F100038C081F822E001F01BFB184B93E8060073
:100F20001A6092F82210906B61F0FF0E1EF0100F05
:100F300008BFB0EC108AB0E8F00F80F30988704762
:100F400010B5104A1368994206D852F821400FC8CC
:100F5000A047EFF30984206010BD10B501F0D2F86E
:100F6000BDE81040EFF3098CBAE710B501F090F836
:100F7000BDE81040EFF3098CB2E700001C0200202E
:100F800034EF00E08CA2000808B5014610B1132030
:100F900001F076FC002008BD10B5044600F030F8E2
:100FA000EFF305832BB9EFF3108313B9EFF311833C
:100FB0003BB100206FF0050100F016F86FF005005E
:100FC00010BD2046DFF804C000DFF9E7890F0008F4
:100FD0007047704770477047704770477047704759
:100FE0007047704770477047704770477047704749
:100FF0007047704770477047704770477047704739
:101000007047704770477047704770477047704728
:101010007047704770477047704770477047704718
:101020007047704770477047704770477047704708
:1010300070477047704770477047704770477047F8
:1010400070477047634870B5017A0446012903D19F
:10105000FFF7C6FF002006E031B14FF0FF30FFF789
:10106000BDFF4FF0FF3070BD5B4D9C22083004F097
:10107000E5FE6B6D472B02D86FF00A00EFE7EA68D8
:10108000002AEAD02B8A002BE7D0A4F85430AB68B2
:10109000E2652364D5E90B61304600F081F908B1BF
:1010A000C4F88060D5E90561304600F079F9002880
:1010B00000F084806667D5E90761304600F070F97A
:1010C00000287FD0A667D5E90961304600F068F9AD
:1010D00000287BD0E6676E6B46B131683046D6E9B2
:1010E000022300F0D6F908B1C4F88460AE6B46B1B3
:1010F00031683046D6E9022300F0CBF908B1C4F8D4
:101100008860EE6B46B131683046D6E9022300F0C4
:10111000C0F908B1C4F88C602E6C46B13168304615
:10112000D6E9022300F0B5F908B1C4F890606E6CFE
:1011300046B131683046D6E9022300F0AAF908B179
:10114000C4F89460AE6C46B131683046D6E90223EB
:1011500000F09FF908B1C4F89860EE6C46B13168B0
:101160003046D6E9022300F094F908B1C4F89C6037
:101170002D6D45B129682846D5E9022300F089F98B
:1011800008B1C4F8A050154AFF2382F8223092F823
:101190002230D16863F0FF03C1F30221DB43B3FACD
:1011A00083F3C3F120038B4298BF4B1CFE2101FA4D
:1011B00003F3DBB2D3770123237249E7D4F88030FD
:1011C000636778E7D4F88030A3677CE7D4F8803091
:1011D000E36780E70802002024A2000800ED00E099
:1011E00010B5034C207AFFF7FCFE207A10BD00BF3B
:1011F0000802002038B5244C237A012B06D06FF06A
:101200000600FFF7EBFE4FF0FF3038BDA36A1F4D1D
:101210004BB9AA6D19461E4801F02AFAA06210B90E
:101220004FF0FF30EDE76B6E4BB1A36C3BB9EA6D4D
:101230001946184801F01CFAA0640028F0D016499D
:10124000686801F04FFC0028DDD101F087FC2061C7
:1012500001F068FC0028D6D1104801F07AF8002887
:10126000DED001F097F92B6813F0010F4FF0020365
:1012700006D083F314882372FFF7B5FE0020C4E77D
:10128000032282F31488F6E70802002024A2000853
:10129000050E0008992A00086B0F000824020020A0
:1012A00008B5FFF79CFEEFF305832BB9EFF310832E
:1012B00013B9EFF3118333B16FF00500FFF78EFE22
:1012C0006FF0050008BDDFF828C0EFF3148313F0BA
:1012D000020F0AD113F0040FEFF308830CBF203B79
:1012E000683B23F0070383F3098800DFEAE700BFC8
:1012F0004510000808B5EFF305832BB9EFF3108311
:1013000013B9EFF3118333B14FF0FF30FFF769FEEC
:101310004FF0FF3008BDEFF31483DB0703D4BDE8C3
:101320000840FFF75DBFDFF808C000DFF2E700BF4D
:10133000E111000808B5FFF755FEEFF305832BB95F
:10134000EFF3108313B9EFF3118333B16FF005009E
:10135000FFF744FE6FF0050008BDFFF7CBFF022842
:1013600005D00D4B1B6813B15B6803B19847DFF8DC
:101370002CC0EFF3148313F0020F0AD113F0040F03
:10138000EFF308830CBF203B683B23F0070383F394
:10139000098800DFE0E700BF30570020F5110008A2
:1013A00038B50C46034630B140EA010212F007029C
:1013B00001D1172906D8184600222146FFF708FE5A
:1013C000002038BDA1F108041025196045602518DA
:1013D00085602250C2600122FFF7FAFD0120F0E78C
:1013E000F8B518B111B132F0030305D00024002381
:1013F000FFF7EFFD2046F8BD0F3100F1080321F0A3
:1014000007011E68D3F804C0F41A2CF00305641B0E
:10141000A14207D934683346002CF2D12346FFF7A6
:10142000D8FDE7E7446842EA01070C444460BCF198
:10143000000F03D15F6003F10804EFE75C195E5110
:1014400067601C600834E9E738B500B121B90022B3
:10145000FFF7C0FD002038BDA1F1080500F1080329
:101460000022AB420CD15C6824F003054468641B85
:1014700044605AB95A600122FFF7ACFD0120EAE747
:101480001C681A46002CE2D02346EAE71B6813606A
:10149000F1E72DE9F0410C4617461D460646F8B126
:1014A000B9B1FAB103B34FF0000C02FB01F831609F
:1014B000C0E901C203EB080CF3607361C0F810C00F
:1014C000FFF789FD2B46013C06D1A8EB0707EC513D
:1014D00001242046BDE8F081DA191A601346F2E7CC
:1014E0000446F6E71446F4E71C46F2E738B504462E
:1014F00028B925460146FFF76FFD284638BD031D74
:10150000026853E8001F8A4202D8BFF32F8F04E01D
:10151000481C43E8000505B1F3E723688B4211D965
:1015200004F1140353E8005F15B9BFF32F8F04E0F3
:101530002A6843E8002101B1F4E729462046FFF775
:101540004BFDDAE70025F8E738B528B1C3688B42D0
:1015500002D803698B4207D86FF003046FF00302CF
:10156000FFF73BFD204638BD031D53E8002F12B99D
:10157000BFF32F8F04E0541E43E8004505B1F4E7A4
:101580009AB100F114031A680A60BFF35F8F53E841
:10159000002F0C689442F6D143E8001505B1F2E73C
:1015A00000242246FFF719FDDCE76FF00204F8E79C
:1015B000036B30B5E3B1CD780024DA78AA420FD3BB
:1015C0001A46C1E901248AB19160A4B16160283052
:1015D00050E8003F5A1C40E8002101B1F8E730BD57
:1015E0005A681C46002AECD01346E6E7C162ECE7D5
:1015F000C1E90133C1620163E9E7D1E9013223B1F5
:101600009A608A681AB153607047C262F9E703634F
:10161000704700002DE9F74F8B46804600B149B96D
:101620006FF003010020FFF7FFFC0024204603B009
:10163000BDE8F08FCF1CB0FA80F327F003070C371A
:10164000B7FA87F10B441F2BEADD07FB00F9F2B173
:10165000136894680193D2E904633CB1A10702D1F5
:10166000D268332A05D86FF00801DBE7D268002A78
:10167000F9D13EB116F0030501D199455CD96FF05F
:101680000901CFE7002BFAD11CB11D4617E0164621
:1016900001922B4BD3F8A00040B1FFF727FF04467F
:1016A00058B96FF00401FFF7BFFCBFE701223421F6
:1016B000D3F88000FFF794FEF1E7012516BBDFF8B1
:1016C00080A000224946DAF87C00FFF789FE064632
:1016D00090B96FF00401FFF7A7FC002DA5D0DAF850
:1016E000A05021461DB12846FFF72EFF9DE7DAF8EE
:1016F0008000FFF7A9FE98E745F002054A46002161
:1017000004F09CFB4FF484733A46A5704146238055
:1017100004F10C00019B63600023A360C4E909B3DA
:10172000C4E90B333346FFF7B4FE054B054A2046A8
:101730001A67FFF77BFC79E7002CE3D1A9E700BF2C
:1017400008020020391800082DE9F0410E469046A5
:101750001D46044618B10378082B00D141B9204634
:101760006FF00301FFF760FC6FF00300BDE8F0814C
:10177000437833B96FF00201FFF756FC6FF00200B7
:10178000F4E78368FBB15B78832B1CD1FFF753FC34
:10179000204600F0DEFD05460122002100F038FF62
:1017A000284600F057FE0546626A3146806804F01C
:1017B00047FAEB680BB183F80080A9682046FFF771
:1017C0003FFC0020D2E704F10C00FFF78FFE074634
:1017D000A0B1626A31460C30002504F031FA40F2C3
:1017E0000713394620463B80BD7087F80380FFF71A
:1017F000DFFE31462046FFF71EFCE2E7A5B12A4690
:1018000031462046FFF714FC0A4B2046596900F088
:101810008DFD2946932001F033F8EFF309836FF033
:101820000100C3E90268A1E731462046FFF704FC46
:10183000A4E700BF08020020F8B543780446002B57
:1018400076D08678002E3CD0C5686B78002B6FD0A0
:10185000002605F10C0701462846FFF7CEFE66700C
:101860003846FFF771FEAB68002B61D05B78932B95
:101870005ED13846FFF73AFE0446002858D0284685
:1018800000F067FD07463246314600F0C1FE38469B
:1018900000F0E0FD6A6A0746816804F10C0004F07C
:1018A000CFF940F20713A670214623802846FB6833
:1018B000E370FFF77DFEB9682846BDE8F840FFF702
:1018C000BABB85686B789BB3AB68416828463BB36D
:1018D0005B78832B24D1FFF7AEFB284600F039FD5F
:1018E00007463246314600F093FE384600F0B2FD1E
:1018F00006466A6A04F10C01806804F0A1F9F368F5
:101900000BB1E2781A70B1682846FFF799FB002303
:10191000214605F10C006370BDE8F840FFF714BEE6
:10192000FFF789FB21462846BDE8F840FFF740BE97
:10193000F8BD10B500F1280353E8002F12B9BFF32A
:101940002F8F04E0511E43E8001404B1F4E70AB9F4
:10195000002010BDC06A01230028F9D0821CD2E803
:101960004F1FC2E8443F04B1F9E711F0FF0FF0D078
:101970008068F1E72DE9F0410D4617469846044688
:1019800018B10378082B00D141B920466FF003014C
:10199000FFF74AFB6FF00300BDE8F081437833B9ED
:1019A0006FF00201FFF740FB6FF00200F4E7FFF772
:1019B000C0FF0646E0B101462046FFF71EFE626A00
:1019C00006F10C01284604F03BF90FB1F3783B70A7
:1019D000294604F10C0700252046FFF731FB31466C
:1019E00075703846FFF7B0FDA368F3B90020D3E760
:1019F000B8F1000F14D0424629462046FFF71EFBDF
:101A00001F4B2046596900F091FC4146832000F0AD
:101A100037FFEFF309836FF00100C3E90257BBE71B
:101A200029462046FFF70DFBBEE75B78932BDDD1FF
:101A30003846FFF75BFD06460028D7D0204600F069
:101A400088FC07460122294600F0E2FD384600F0F6
:101A500001FD626A0746816806F10C0004F0F0F8A7
:101A600040F20713B570314633802046FB68F370AF
:101A7000FFF79EFD2046B968FFF7DDFA28468BE7A1
:101A80000802002070B506460D461446FFF7CDFA51
:101A9000EFF305832BB9EFF3108313B9EFF3118341
:101AA00033B100206FF00501FFF7BEFA002070BDD2
:101AB000304629462246DFF828C0EFF3148313F09E
:101AC000020F0AD113F0040FEFF308830CBF203B81
:101AD000683B23F0070383F3098800DFE7E700BFD3
:101AE000151600082DE9F04104460F4690461D46A4
:101AF000FFF79DFAEFF305832BB9EFF3108313B9CA
:101B0000EFF31183CBB324B12378082B01D107B1B4
:101B100045B120466FF00301FFF786FA6FF003002E
:101B2000BDE8F08163783BB96FF002012046FFF712
:101B30007BFA6FF00200F3E704F10C00FFF7D6FC2C
:101B40000646A8B1626A39460C3004F079F840F2D2
:101B500007133046B570338086F80380C6E90174F8
:101B600000F014FB20463946FFF764FA2846D7E711
:101B700039462046FFF760FADBE720463946424601
:101B80002B46DFF808C000DFCAE700BF491700088E
:101B9000F8B504460D4617461E46FFF74EFAEFF31A
:101BA00005832BB9EFF3108313B9EFF31183A3B3BC
:101BB00024B12378082B01D105B13EB120466FF046
:101BC0000301FFF731FA6FF00300F8BD63783BB90A
:101BD0006FF002012046FFF727FA6FF00200F4E7EA
:101BE0002046FFF7A6FE064690B100F10C01626A9E
:101BF000284604F025F80FB1F3783B7029462046BB
:101C0000FFF71EFA3046F46000F0C0FA0020DCE76F
:101C100029462046FFF715FADFE7204629463A46CF
:101C20003346DFF808C000DFCFE700BF75190008B2
:101C300070B5002839D08468D0E900566CB114F032
:101C4000030302D1C2681B2A1FD800246FF00801C9
:101C50000020FFF7D9F9204670BDC368002BF4D1EE
:101C6000134BD3F8940030B901221C21D3F8800023
:101C7000FFF7B6FB01E0FFF739FC044620B96FF02F
:101C80000401FFF7C1F9E6E701234FF48272A37064
:101C90000023E6702280204665602376C4E9023383
:101CA000C4E90433FFF7B2F9D5E705460646D7E79E
:101CB00008020020304B70B55D6904460E4635B908
:101CC0006FF00701FFF7A0F94FF0FF3070BD10B1C2
:101CD0000378042B07D020466FF00301FFF794F937
:101CE0006FF00300F2E7437833B96FF00201FFF7BA
:101CF0008BF96FF00200E9E7017E69B9EB6AC56014
:101D0000C0E9041303B1186101212046EC62217679
:101D1000FFF780F90020D9E7C378DA070BD5C2684E
:101D2000AA4208D1FF2902D16FF00F01DFE701318C
:101D3000C9B20176ECE7DEB19B070AD5E06895F9F8
:101D4000203090F920209A4203DA80F8203000F009
:101D50001BFB31462046FFF75BF92946204600F081
:101D6000E5FA3146532000F08BFD6FF00100ADE73E
:101D70002046FFF750F9BCE70802002038B5334B86
:101D800004465D6935B96FF00701FFF73DF94FF083
:101D9000FF3038BD10B10378042B07D020466FF018
:101DA0000301FFF731F96FF00300F2E7437833B92D
:101DB0006FF00201FFF728F96FF00200E9E7C3684E
:101DC000AB4202D06FF00D01F4E7017E11B96FF064
:101DD0000E01EFE70139C9B20176FFF71EF9237E44
:101DE0003BBB63690BB122691A6122691AB3536163
:101DF000E3789B0705D595F92120EB6AEBB985F8C7
:101E00002020A36893B1204600F0A3FA00220546E3
:101E1000114600F0FDFBEB6A0121E56063610023E0
:101E200020462361EC622176FFF7F4F8002000F0F1
:101E3000C1FB0020ADE7EB62DAE7996821B191F9C7
:101E400020108A42B8BF0A465B69D7E70802002023
:101E50002DE9F0410446002601270CB9BDE8F081C8
:101E6000E378D4F814801B0718D526760021204685
:101E7000FFF7D3F8A3688BB1204600F06AFA00227E
:101E80000546114600F0C4FBEB6AE56001212046DF
:101E9000C4E90463EC622776FFF7BCF84446DCE74C
:101EA00010B50446FFF7B1F8EFF305832BB9EFF354
:101EB000108313B9EFF3118333B100206FF00501E4
:101EC000FFF7A2F8002010BD2046DFF828C0EFF38E
:101ED000148313F0020F0AD113F0040FEFF30883F9
:101EE0000CBF203B683B23F0070383F3098800DF26
:101EF000E9E700BF311C000838B504460D46FFF77E
:101F000086F8EFF305832BB9EFF3108313B9EFF3E2
:101F100011833BB120466FF00501FFF775F86FF0B4
:101F2000050038BD20462946DFF804C000DFF8E789
:101F3000B51C000810B50446FFF76EF8EFF30583F3
:101F40002BB9EFF3108313B9EFF311833BB12046A4
:101F50006FF00501FFF758F86FF0050010BD20463F
:101F6000DFF804C000DFF9E77D1D000830B500F19F
:101F70000C02C189D2E85F3F994202D8BFF32F8F8C
:101F800004E05C1CC2E8554F05B1F3E7C0899BB281
:101F9000984294BF0020012030BD38B5054610B1ED
:101FA0000378052B07D028466FF00301FFF736F8BA
:101FB0006FF0030038BD437833B96FF00201FFF7CB
:101FC0002DF86FF00200F5E784686CB1FFF72AF88E
:101FD000284600F0BEF90122002100F019FB284636
:101FE000FFF71EF80020E5E7FFF7C0FF18B96FF014
:101FF00010012846E3E72846FFF714F82046D9E702
:1020000010B50446FFF70DF8EFF305832BB9EFF396
:10201000108313B9EFF3118323B314B12378052B85
:1020200007D020466FF00301FEF7F8FF6FF00300C2
:1020300010BD63783BB96FF002012046FEF7EEFF5A
:102040006FF00200F4E72046FFF790FF38B120461A
:1020500000F09CF82046FEF7E5FF0020E8E76FF06F
:102060001001EAE72046DFF808C000DFE0E700BF24
:102070009B1F000810B5D0E85F3F5A1C914200D862
:102080000022C0E8542F04B1F5E798B210BD00005B
:1020900038B51B4C00F05CFDE3680133E360236D51
:1020A00003B1984700F0E0F9002000F083FA236CB8
:1020B0002BB1A26BA1698A4202D0A163E36338BD50
:1020C000E36B0BB1013BE363E36B002BF7D1237AA6
:1020D000022BF4D1656A002DF1D095F9201092F908
:1020E00020309942EBD1284600F044F9A06B00F073
:1020F0005DF9284600F04EFAA563236CDEE700BFC9
:102100000802002070B5204C04F1560504F15A066F
:10211000B4F85410D5E85F3F13B9BFF32F8F04E034
:102120005A1EC5E8502F00B1F4E79BB23BB33046CE
:10213000FFF7A0FFE36D53F8200000B30378013BE5
:10214000062BE5D801A252F823F000BF6921000850
:10215000112100086F2100081121000873210008D7
:10216000772100087B210008236E9847D0E7636E33
:10217000FBE7A36EF9E7E36EF7E7236FF5E70020CF
:10218000BDE8704000F016BA0802002070B5164C89
:102190000546B4F8541004F15602D2E85F3F994264
:1021A00002D8BFF32F8F04E0581CC2E8560F06B1C7
:1021B000F3E79BB2994205D829460220BDE870405A
:1021C000FEF724BE04F15800FFF754FFE36D43F817
:1021D0002050637A23B9054B4FF080525A6070BD8E
:1021E0000123A372FBE700BF0802002000ED00E01E
:1021F00010B5044610B10378012B05D0204600210C
:10220000FEF7F5FE002010BD4378002BF6D04168A4
:10221000FEF7EDFE6068F6E7034B10B55C692046FB
:10222000FEF7E6FE204610BD0802002008B5FEF7C6
:102230002DFEDFF810C000DF4FF0FF310020FEF769
:10224000D3FEFEE7CD280008930710B502F0010485
:1022500022D400F1280384B153E8000F00EA010200
:102260008A4203D0BFF32F8F002005E020EA01024D
:1022700043E8002404B1EFE710BD53E8000F084223
:1022800003D1BFF32F8F002005E020EA010243E8CD
:10229000002404B1F1E7EFE7806A01EA00031CB112
:1022A000994218BF0020E7E7002B08BF0020E3E7B2
:1022B000002310B54370044683789A0708D513F0BD
:1022C000100F016B0E4B0FD0D3F88400FFF73CF9D1
:1022D000A378DB0712D50A4B2146D3F8880038B122
:1022E000BDE81040FFF730B9586FFFF7ADF8EFE7E2
:1022F000D3F88000BDE81040FFF7A6B810BD00BFBE
:1023000008020020084A0021136B10B53BB94FF0BA
:10231000FF34C0E90431C46121B1086110BD194620
:102320001B69F3E71063F9E70802002010B561B1FB
:1023300091F9202083681BB193F92040944205DA7B
:10234000C1E90230816003B1D96010BD18469B68B5
:10235000F1E783682BB19A68826002B1D0600022F5
:10236000DA601846704710B10378012B00D070472F
:10237000C068F8E7C36833B182689A60826802B1C6
:10238000D3600023C360704710B50146044623782C
:10239000012B07D00846FFF7EDFF2046BDE81040AF
:1023A000FFF7C4BFE468002CF1D110BD0123014642
:1023B00043700148FFF7BABF240200204B1C0246BD
:1023C00030B402D130BCFFF79DBF0C480024C36A73
:1023D00013B1DD698D420BD9D161C2E904345CB11E
:1023E00022611BB1D8695A61411AD96130BC70476A
:1023F0001C46491B1B69EBE7C262F2E7080200209A
:1024000010B5C4694269631C10D11AB9104B1B6B1B
:1024100098420AD1036903B15A6142691AB1136142
:102420000023436101E00A4A136310BD1AB9084B47
:10243000DB6A8342F9D103691BB1D9695A6121442E
:10244000D9614269002AEAD1014AD362EDE700BFAF
:102450000802002090F82230826B13F0100F0CBF9E
:10246000602020201044704738B52C4DEC6A4CB3E6
:10247000E369013BE3612BBB6378532B36D008D86B
:10248000332B2AD0432B2BD0132B07D1FEF7B9FDCA
:1024900004E0732B36D016D8632B2DD02046FFF7DF
:1024A000D9FF01682046FEF7A6FD2046FFF762FF30
:1024B000FFF77CFF246924B1E369002BDCD0002303
:1024C0006361EC6238BD832B22D0932BE6D120468A
:1024D000FFF749FFFEF7ADFDE0E7FEF78FFDDDE713
:1024E0002046FFF740FFFEF78EFDD7E72046FFF7B7
:1024F0003AFFFEF78EFDD1E72046FFF734FFFEF7E7
:102500008EFDCBE72046FFF72EFFFEF78CFDC5E7DB
:102510002046FFF728FFFEF792FDBFE708020020E4
:1025200001230A4A90F9201043701C32936810B5B9
:102530001BB193F920408C4205DCC0E90232906067
:1025400003B1D86010BD1A469B68F1E7080200206D
:10255000044B1B682BB11B691BB1034A9269506C79
:10256000184770473057002008020020074B596970
:1025700051B10B6B8A6B934203D21A68044B9A4297
:1025800002D00120FEF742BC704700BF08020020C5
:10259000A52E5AE2022310B543700446044B9861FD
:1025A000FFF7E4FF2046BDE81040FEF725BD00BF61
:1025B00008020020154B10B5596904461A7AA8B9CB
:1025C000022A5C6A20D1F9B1F4B194F9202091F982
:1025D00020309A4218DD2046FFF7CCFE0846FFF770
:1025E0009FFF2046BDE81040FFF7D4BF022A06D166
:1025F00029B190F9202091F920309A42EEDC204652
:10260000BDE81040FFF7D2BE10BD00BF0802002099
:1026100070B504460E461546FEF7EDFC2046FFF762
:1026200019FF06602046FFF7EBFE1DB1BDE87040C4
:10263000FFF7C0BFBDE87040FFF7B8BE38B54378BC
:102640000446332B13D190F82320416AFFF7FCFD99
:10265000054660B1014600222046FFF7D9FF2A4611
:1026600094F82310606ABDE83840FEF7C8BC38BD56
:102670002DE9F04F85B08246CDE9023128B96FF0DF
:102680000301FEF7B1FC002437E0002A39D094683A
:102690009769D2E9046544B1A30702D1D368472BF7
:1026A00006D86FF008010020EBE7D368002BF8D1C3
:1026B0003EB1700702D1002D40F0CA806FF00A01D0
:1026C000F1E72FB17B1E372B03D96FF00B01EAE73F
:1026D0001827002D40F0C080D2E900830193ECB9A7
:1026E000614BD3F8880090B1FEF700FF0446002844
:1026F00036D16FF00401FEF777FC204605B0BDE847
:10270000F08F90461827154616460192E8E70122F9
:102710004821D3F88000FEF763FEE7E74FF0000B97
:102720002EBBDFF84491002D7AD1504AD9F88400AD
:10273000556D002874D0FEF7D9FE064698B96FF0A3
:1027400004010020FEF750FCBBF1000F9BD0D9F82C
:1027500088502146002D6DD02846FEF7F5FE92E701
:102760004FF0010BDCE74BF0100B4BF0020B9DF828
:10277000043040F201127FB284F802B0E37000230B
:102780002280FD2284F8233084F822203246C4F8C7
:10279000048084F8207084F821706563C4E90233F2
:1027A000C4E90433C4E90633C4E90933C4E90B3688
:1027B000A5F140033344C4E90E3A2D4B33602B4B53
:1027C0001B685B073FD5AD084FF0CC31A5F1110375
:1027D000002B34D106EB8506403E06F1340300227F
:1027E00046F8042B9E42FBD1224B2046224AC6E9E2
:1027F000003A4FF08073B360039B46F8143C1A4BC9
:102800001A66FEF7F3FB1D4B1B68F3B19B68E3B13F
:1028100002992046984760642046FFF7CBFE6CE79C
:1028200032462946D9F87400FEF7DAFD064600283C
:102830009BD184E7D9F88000FEF706FE23E742F833
:10284000041F013BC4E7A66BC7E7029B6364E3E791
:10285000002F7FF437AF182769077FF42FAF472D7C
:102860003FF63AAF2AE700BF0802002024A2000882
:10287000A52E5AE22D2200083D26000830570020E0
:10288000F8B5114D07460E466C69D4B12B7A022B70
:1028900004D02046FFF76EFD0020F8BD686A0028CE
:1028A000FBD02046FEF7A6FB314620466770FFF7B7
:1028B00085FD05F11C00FFF74CFDFFF76BFE0120C5
:1028C000EBE72046E9E700BF0802002038B51B4DC2
:1028D0006C69002C30D0E06AFFF7BAFAA06930B119
:1028E00000221146FFF794FEA069FEF782FB2B7AC7
:1028F000022B21D16B6AFBB1EFF309831048A3636C
:10290000FFF727FDFFF746FE00236B61E378DB0747
:1029100001D5A3693BB12046FFF7CAFC2046BDE8BC
:102920003840FEF76ABB0422E36062706B6BA36001
:1029300003B1DC606C63F1E738BD00BF0802002022
:1029400024020020F8B507460E4615461C46FEF741
:102950004CFBEFF305832BB9EFF3108313B9EFF3BF
:10296000118333B100206FF00501FEF73DFB00201D
:10297000F8BD384631462A462346DFF828C0EFF333
:10298000148414F0020F0AD114F0040FEFF308843A
:102990000CBF203C683C24F0070484F3098800DF66
:1029A000E6E700BF712600080023FFF7CBBF000059
:1029B00008B50346EFF305822AB9EFF3108212B986
:1029C000EFF311822AB118460021FEF710FB002018
:1029D00008BDDFF808C000DFFAE700BFF1210008FA
:1029E00008B5EFF305832BB9EFF3108313B9EFF3B9
:1029F000118323B10020FEF7FBFA002008BDDFF8A9
:102A000008C000DFFAE700BF192200080C4A30B501
:102A1000536C002413B11D698D420AD90161C0E9CC
:102A200002431BB11D699860691A19612CB1E060FD
:102A300030BD1C46491BDB68ECE75064F8E700BF7B
:102A40000802002070B5134D6C6C04B32369012695
:102A5000013B23612369D3B9E3680BB1A2689A6093
:102A60006B64002304F11801E86C1A46FFF73AF88A
:102A700018B121460320FEF7C9F9E378012B07D1ED
:102A800061692046FFF7C2FF6C6C002CE2D170BD7B
:102A90006670F9E7080200200F4B13B50F4C0821B0
:102AA0001A6E586EFEF7EEFFE06490B10C4B236592
:102AB0004FF0FF3300226946E06CFFF769F8002809
:102AC000F6D1DDE90001FEF79DFADDE90030984717
:102AD000EEE702B010BD00BF24A2000808020020EB
:102AE000452A0008A8B10C4B1B68B3FBF0F0013875
:102AF000B0F1807F0DD2094BFF22A3F54F6383F81D
:102B0000132D06221A60586000209860044B18703C
:102B100070474FF0FF307047AC02002000ED00E03E
:102B2000D0140020074B1A782AB100221A704FF0F7
:102B30008062054B5A60054A0020136843F0010388
:102B400013607047D014002000ED00E010E000E0BA
:102B5000014B00201B68704710E000E04FF0FF3091
:102B600070470000024B1B6803B11847704700BF55
:102B7000D4140020FEF710BA10B50223AAB00F2219
:102B80000024072101A8CDE901234FF4A053CDE98A
:102B900003434FF48053059300F08EFB58B94FF474
:102BA0000013259006A8069300F07EFCB0FA80F092
:102BB00040092AB010BD2046FBE700000F49002065
:102BC000D1F8883043F47003C1F888300C4B1A6890
:102BD00042F001021A6098601A6822F0847222F4AE
:102BE00080321A60074A5A601A6822F480221A60FA
:102BF000D8604FF000638B60704700BF00ED00E0CD
:102C000000380240103000241D4B1A6C42F08052F4
:102C100000B51A6491B01B6C03F080530193019BC3
:102C2000184B1A6842F440421A601B6803F4404390
:102C30000293029B01230393B8B94FF480334FF4FE
:102C4000800204930223042103A80D93CDE90932E5
:102C5000D822CDE90B120922CDE90E2300F03AF972
:102C600030B1002011B05DF804FB4FF4A023E6E77B
:102C700000F0F8F80028F4D1FFF77EFFF2E700BF7C
:102C80000038024000700040164B082010211A6CDA
:102C900042F0805200B51A648FB01B6C012205917E
:102CA00003F08053049200220093009B02230292BF
:102CB00001930B93CDE90732D822CDE9090209220D
:102CC00001A8CDE90C2300F005F918B100200FB0E0
:102CD0005DF804FB00F0C6F80028F7D1FFF74CFFC1
:102CE000F5E700BF0038024008B50120FFF78CFF70
:102CF00018B9FFF7C9FF00B9FEE708BDDFF820D01B
:102D0000002103E0074B5B58435004310648074B52
:102D100042189A42F6D3FFF751FFFDF7B1FA704718
:102D20000000082074A80008F80100206C0C0020A6
:102D3000FEE77047074A032008B5136843F40073A1
:102D4000136000F017F80F2001F0B6FDFFF7F1FF58
:102D5000002008BD003C0240024A136801331360A2
:102D6000704700BF34570020014B1868704700BF00
:102D700034570020074A0002D36800F4E06023F4CF
:102D8000E0631B041B0C43F0BF6343F400330343B5
:102D9000D360704700ED00E07047704770B502687F
:102DA00041F214060446955915F0400521D0FDF76F
:102DB000E1FA236840229A51012384F84430002329
:102DC00084F84530236841F214054FF480325A519B
:102DD0005B591B040CD52046FFF7DFFF23684FF437
:102DE00000425A51012384F84430002384F84530CE
:102DF00070BD9359DA07E5D5FFF7CEFF01232268AE
:102E0000935184F8443084F84550DBE7064A0129A1
:102E1000136923F00403136101D130BF704740BF31
:102E200020BF20BF704700BF00ED00E00B4A012922
:102E3000136823F0030340EA0300094B10601A698A
:102E400042F004021A6105D130BF1A6922F004026F
:102E50001A61704740BF20BF20BFF6E700700040F6
:102E600000ED00E0194B37B51A6C194C42F0805256
:102E70001A641B6C03F080530193019B236843F495
:102E800080332360FFF770FF05466368DA030CD5D3
:102E9000236843F400332360FFF766FF0C4C0546BC
:102EA00063689B030AD5002006E0FFF75DFF401B27
:102EB000B0F57A7FE9D9032003B030BDFFF754FFA6
:102EC000401BB0F57A7FEBD9F5E700BF0038024030
:102ED0000070004003682DE9F3410446D80710D480
:102EE0002368990761D42368190700F1B08023682B
:102EF0005A0700F1D180A269002A40F03B810020EE
:102F000015E09A4B9A6802F00C02042A07D09A68DE
:102F100002F00C02082A0DD15B685A020AD5934BC5
:102F20001B689B03DCD56368002BD9D1012002B05C
:102F3000BDE8F08163688D4DB3F5803F11D12B68FA
:102F400043F480332B60FFF70FFF884D06462B6854
:102F50009F03C5D4FFF708FF801BC828F7D90320BB
:102F6000E5E79BB92B6823F480332B602B6823F4AF
:102F700080232B60FFF7F8FE06462B689803AFD539
:102F8000FFF7F2FE801BC828F7D9E8E7B3F5A02FBA
:102F90002B6803D143F480232B60D0E723F48033E4
:102FA0002B602B6823F48023CCE7704B9A6812F0D7
:102FB0000C0F07D09A6802F00C02082A16D15B6841
:102FC000590213D4694B1A68920702D5E268012AA4
:102FD000ACD11868F82292FAA2F2B2FA82F1226910
:102FE0008A4020F0F8010A431A607CE7E3685F4DED
:102FF000E3B12B6843F001032B60FFF7B5FE0646F3
:103000002B689F070CD52968F82393FAA3F3B3FA2A
:1030100083F22369934021F0F80213432B6062E7A7
:10302000FFF7A2FE801B0228EAD998E72B6823F05D
:1030300001032B60FFF798FE06462B6898077FF583
:1030400052AFFFF791FE801B0228F6D987E763692C
:10305000464D83B16B6F43F001036B67FFF784FE4E
:1030600006466B6F9B073FF542AFFFF77DFE801B67
:103070000228F6D973E76B6F23F001036B67FFF744
:1030800073FE06466B6F9F077FF531AFFFF76CFE4F
:10309000801B0228F6D962E7344B1A6CD00027D483
:1030A0001A6C012642F080521A641B6C03F08053A4
:1030B0000193019B2E4D2B68D9051BD5A3682B4D81
:1030C000012B27D12B6F43F001032B6741F2883589
:1030D000FFF74AFE254F80463B6F9B073FD5002EEA
:1030E0003FF409AF214A136C23F08053136402E7C5
:1030F0000026DFE72B6843F480732B60FFF734FE74
:1031000007462B68DA05D9D4FFF72EFEC01B6428CA
:10311000F7D924E7ABB92B6F41F2883823F00103CC
:103120002B672B6F23F004032B67FFF71DFE074669
:103130002B6F9807D3D5FFF717FEC01B4045F7D973
:103140000DE7052B2B6F03D143F004032B67B9E781
:1031500023F001032B672B6F23F00403B5E7FFF780
:1031600003FEA0EB0800A842B6D9F8E600380240FA
:1031700000700040324DAB6803F00C03082B3FF4A5
:10318000D5AE2B68022A23F080732B604AD1FFF75B
:10319000EBFD06462B6899013ED447F6C07797FAB7
:1031A000A7F74FF44032B7FA87F792FAA2F24FF03E
:1031B0007060B2FA82F690FAA0F04FF0E041B0FAF7
:1031C00080F091FAA1F1D4E90732B1FA81F1134309
:1031D000626A02FA07F7A26A52083B43013AB24018
:1031E0001343E26A02FA00F0226B154C034302FA21
:1031F00001F10B436B602B6843F080732B60FFF78A
:10320000B3FD054623689A013FF579AEFFF7ACFDA3
:10321000401B0228F6D9A2E6FFF7A6FD801B022874
:10322000B8D99CE6FFF7A0FD04462B689B017FF50B
:1032300066AEFFF799FD001B0228F6D98FE600BFA6
:1032400000380240194A936803F00C03042B10B5B0
:1032500003D0082B03D0164800E0164810BD516873
:1032600047F6C074536801F03F0113F4800F5368B0
:1032700094FAA4F0B0FA80F003EA04034FF4403269
:1032800023FA00F314BF0B480948B0FBF1F0584390
:10329000064B5B6892FAA2F2B2FA82F203F4403370
:1032A000D34001335B00B0FBF3F0D7E700380240B6
:1032B0000024F40000127A00504A136803F00F0350
:1032C0008B422DE9F04104460D462ED32268960725
:1032D00038D4D0073ED4494A136803F00F03AB42F9
:1032E00079D82268510700F18180130707D5444A35
:1032F0002169936823F4604343EAC1039360FFF7B5
:10330000A1FF3F4BF0229B6892FAA2F2B2FA82F23E
:1033100003F0F003D3403B4AD35CD8403A4B1860EB
:103320000F2001F0C9FA00200AE0136823F00F0310
:103330000B431360136803F00F038B42C6D00120C8
:10334000BDE8F0812E49A0688B6823F0F0030343A9
:103350008B60BEE761682A4B01291A681CD112F400
:10336000003FECD09A6841F28838254F22F00302E2
:103370000A439A60FFF7F8FC63680646012B13D1F5
:10338000BB6803F00C03042BA5D0FFF7EDFC801BFA
:103390004045F5D90320D3E7022902D112F0007F7E
:1033A000DFE712F0020FDCE7022B0FD1BB6803F05E
:1033B0000C03082B8FD0FFF7D7FC801B4045F5D9B5
:1033C000E8E7FFF7D1FC801B4045E3D8BB6813F06A
:1033D0000C0FF6D17FE7136823F00F032B43136024
:1033E000136803F00F03AB42A9D17AE70449E06800
:1033F0008B6823F4E05303438B6076E7003C024084
:10340000003802402DA40008AC020020084B4FF405
:10341000E0529B6892FAA2F2B2FA82F203F4E0530D
:10342000D340044AD35C044A1068D840704700BFB8
:10343000003802403DA40008AC020020084B4FF4C5
:1034400060429B6892FAA2F2B2FA82F203F46043FD
:10345000D340044AD35C044A1068D840704700BF88
:10346000003802403DA40008AC0200200F23036096
:103470000B4B9A6802F0030242609A6802F0F00275
:1034800082609A6802F4E052C2609B68DB0803F431
:10349000E0530361034B1B6803F00F030B6070479D
:1034A00000380240003C024003682DE9F34713F066
:1034B000010604460BD0BB4A916821F400019160DB
:1034C000466B91683143B6FA86F67609916013F43B
:1034D000002512D0B349E56BD1F88C20B5F5801FDB
:1034E00022F4401208BF012642EA050216BFB5FACF
:1034F00085F500256D09C1F88C20DF0210D5A9489B
:10350000216CD0F88C20B1F5800F22F4400242EA01
:103510000102C0F88C2000F02582002908BF012597
:1035200013F0807F18BF0126980631D59D4B9E4F22
:103530001A6C42F080521A641B6C03F080530193A2
:10354000019B3B6843F480733B60FFF70DFC8046B2
:103550003B68D90540F10882924F3B6F13F44073EA
:1035600040F00D82236B03F44072B2F5407F8D4A28
:1035700040F02B82916823F0704021F4F81120F480
:10358000407001439160C3F30B03116F0B4313674A
:103590002368DF060CD5834AD2F88C1021F08071A5
:1035A000C2F88C10D2F88C10A06B0143C2F88C10BA
:1035B000580408D57B49606ED1F8902022F440323F
:1035C0000243C1F89020190408D57649A06ED1F8BD
:1035D000902022F440220243C1F89020DA0308D55B
:1035E0007049E06ED1F8902022F440120243C1F8F5
:1035F00090209F0308D56B49206FD1F8902022F4CA
:1036000040020243C1F89020580608D56549606C15
:10361000D1F8902022F003020243C1F8902019064D
:1036200008D56049A06CD1F8902022F00C0202432A
:10363000C1F89020DA0508D55A49E06CD1F89020FD
:1036400022F030020243C1F890209F0508D5554969
:10365000206DD1F8902022F0C0020243C1F89020E2
:10366000580508D54F49606DD1F8902022F440727A
:103670000243C1F89020190508D54A49A06DD1F838
:10368000902022F440620243C1F89020DA0408D569
:103690004449E06DD1F8902022F440520243C1F831
:1036A00090209F0408D53F49206ED1F8902022F445
:1036B00040420243C1F89020580208D53949A06F12
:1036C000D1F8902022F080620243C1F89020990244
:1036D0000CD53448E16FD0F89020B1F1006F22F0A2
:1036E000006208BF01250A43C0F8902013F0080FBC
:1036F00018BF01255A0308D52A49606FD1F89020D8
:1037000022F040720243C1F890201F0209D52549DA
:10371000D4F88000D1F8902022F080520243C1F802
:103720009020580109D51F49D4F88400D1F8902081
:1037300022F000520243C1F89020190109D519491D
:10374000D4F88800D1F88C2022F000720243C1F82E
:103750008C20DA0009D51349D4F88C00D1F88C20DC
:1037600022F080620243C1F88C20012E00F03481E7
:10377000B3F1007F00F03081012D40F0F180094D60
:103780002B6823F080532B60FFF7EEFA06462B6878
:103790009F0000F1408221680E0307D5E36B53B10F
:1037A00004E000BF0038024000700040CD0247D561
:1037B000236C002B44D1874D4FF4403CD5F8880052
:1037C0009CFAACFE4FF0E046BEFA8EFED5F888209B
:1037D00096FAA6F747F6C073B7FA87F793FAA3F3FA
:1037E000B3FA83F99CFAACFC4FF07068BCFA8CFC1D
:1037F00098FAA8F8B8FA88F896FAA6F6636900F479
:10380000403002F0E042B6FA86F603FA09F9A369FD
:1038100020FA0EF0FA4003FA08F800FA0CF0B24071
:1038200049EA080303431343C5F88830D5F88C30C0
:10383000A26A23F4F853013A43EA0223C5F88C3014
:1038400088023ED5E36FB3F1006F3AD1614D4FF07E
:10385000706CD5F888009CFAACFE4FF0E046BEFADA
:103860008EFED5F8882096FAA6F747F6C073B7FA09
:1038700087F793FAA3F34FF44038B3FA83F998FA31
:10388000A8F8B8FA88F89CFAACFCBCFA8CFC96FA5A
:10389000A6F6636900F0706002F0E042B6FA86F6C0
:1038A00003FA09F9236A20FA0EF0FA4003FA08F83D
:1038B00000FA0CF0B24049EA080303431343C5F889
:1038C00088300A0740D543484FF07065D0F888200B
:1038D00095FAA5F64FF4403CB6FA86F6D0F8881073
:1038E0009CFAACF847F6C073B8FA88F893FAA3F3D9
:1038F000B3FA83F79CFAACFCBCFA8CFC95FAA5F5FC
:103900004FF0E04EB5FA85F59EFAAEFE6369BEFA59
:103910008EFE01F4403102F07062BB40E76921FA8B
:1039200008F1F24007FA0EF701FA0CF1AA403B4306
:103930000B431343C0F88830D0F88C30E26A23F48C
:1039400040331343C0F88C30224C236843F080533B
:103950002360FFF709FA054623689B0040F1628166
:10396000002009E00126DBE5FFF7FEF9A0EB0800E7
:1039700064287FF6EDAD032002B0BDE8F087226B2E
:1039800002F440729A423FF4EDAD3B6F3A6F23F47C
:10399000407342F480323A673A6F22F480323A67D9
:1039A0003B673B6FDA077FF5DDADFFF7DDF941F2ED
:1039B000883980463B6F9B073FF5D4ADFFF7D4F9BC
:1039C000A0EB08004845F5D9D5E7916821F4F81136
:1039D000D8E500BF00380240964E336823F080637C
:1039E0003360FFF7C1F9074633681B0100F10C8112
:1039F0002268D7073CD5636BD3BBD6F884004FF45D
:103A0000403E9EFAAEF84FF07067B8FA88F8D6F8E4
:103A1000841097FAA7FC47F6C073BCFA8CFC93FAA3
:103A2000A3F3B3FA83FA9EFAAEFEBEFA8EFE97FABD
:103A3000A7F74FF0E049B7FA87F799FAA9F9636851
:103A4000B9FA89F900F4403001F0706103FA0AFA1A
:103A5000A36820FA08F021FA0CF103FA09F900FA38
:103A60000EF0B9404AEA090303430B43C6F8843019
:103A7000160303D5E36BB3F5801F05D0D00248D5FC
:103A8000236CB3F5800F44D16A4E4FF4403ED6F814
:103A900084009EFAAEF84FF0E047B8FA88F8D6F8FE
:103AA000841097FAA7FC47F6C073BCFA8CFC93FA13
:103AB000A3F3B3FA83FA9EFAAEFE4FF07069BEFA32
:103AC0008EFE99FAA9F9B9FA89F997FAA7F7636806
:103AD00000F4403001F0E041B7FA87F703FA0AFA40
:103AE000E36820FA08F021FA0CF103FA09F900FA68
:103AF0000EF0B9404AEA090303430B43C6F8843089
:103B0000D6F88C10636A21F01F01013B0B43C6F805
:103B10008C30D1013BD5474E4FF0706ED6F8840003
:103B20009EFAAEF84FF0E047B8FA88F8D6F884105D
:103B300097FAA7FC47F6C073BCFA8CFC93FAA3F380
:103B40004FF44039B3FA83FA99FAA9F9B9FA89F925
:103B50009EFAAEFEBEFA8EFE97FAA7F7636800F0F3
:103B6000706001F0E041B7FA87F703FA0AFA2369B7
:103B700020FA08F021FA0CF103FA09F900FA0EF024
:103B8000B9404AEA090303430B43C6F88430920163
:103B900028D547F6C07393FAA3F34FF44030B3FA35
:103BA00083F690FAA0F04FF07061B0FA80F091FACD
:103BB000A1F14FF0E042B1FA81F192FAA2F263680A
:103BC000B2FA82F2B340266906FA00F00343E068D5
:103BD00000FA01F10B43A16801FA02F21343154AFE
:103BE000C2F88430134E336843F080633360FFF7CC
:103BF000BBF8074633681B013FF5BEADFFF7B4F8CD
:103C0000C01B6428F6D9B6E6FFF7AEF8C01B6428DF
:103C10007FF6EAAEAFE6FFF7A7F8801B64287FF6D1
:103C2000B6ADA8E6FFF7A0F8401B64287FF694AE77
:103C3000A1E600BF00380240026838B5D3680446E8
:103C400023F0A003D360FFF78FF805462368DB68F5
:103C50009B0601D5002038BDFFF786F8401BB0F564
:103C60007A7FF3D90320F6E770470000304A0368F3
:103C7000904212D0B0F1804F0FD0A2F57C4290421A
:103C80000BD002F58062904207D002F5806290422C
:103C900003D002F57842904219D14A6823F07003AC
:103CA0001343234A904229D0B0F1804F26D0A2F589
:103CB0007C42904222D002F5806290421ED002F5F2
:103CC000806290421AD002F57842904216D0194A8A
:103CD000904213D002F5806290420FD002F58062CC
:103CE00090420BD0A2F59832904207D002F5806244
:103CF000904203D002F58062904203D123F44073D6
:103D0000CA6813434A6923F08003134303608B6836
:103D1000C3620B688362064B984203D003F580634D
:103D2000984201D10B69036301234361704700BFCF
:103D3000000001400040014010B50446A0B190F8D9
:103D40003D3003F0FF021BB980F83C20FFF78CFFE9
:103D500002232068211D84F83D30FFF787FF0123EF
:103D6000002084F83D3010BD0120FCE710B501248F
:103D7000036A8A408C4023EA04030362036A1A43FD
:103D8000026210BD10B5044601220068FFF7EEFF85
:103D90002368084A934203D002F58062934203D11C
:103DA0005A6C42F400425A641A68002042F0010240
:103DB0001A6010BD0000014070472DE9F041069DDA
:103DC00004460F46164698462168CA6937EA020338
:103DD0000CBF01220022B24201D0002014E06B1C73
:103DE000F3D09DB9236803201A6822F4D0721A60B8
:103DF0009A6822F001029A60202384F8693084F8DE
:103E00006A30002384F86830BDE8F081FEF7ACFF2B
:103E1000A0EB0800A842D7D3E4E7000038B5C26998
:103E200004460368816800691D68014360690143B5
:103E30008E4811432840256A0143E068196059689B
:103E400021F4405101435960A1699868294320F445
:103E500030600143996086498B4219D101F5943154
:103E60008448D1F8901001F00301415CB2F5004F95
:103E700040F0B380082900F2AD80DFE811F02700A0
:103E8000DC00E700AB00F300AB00AB00AB0042008E
:103E900079498B4207D101F5FA317848D1F8901071
:103EA00001F00C01E1E776498B422FD101F5F831A1
:103EB000D1F8901001F03001102900F0D08017D80F
:103EC000002958D1B2F5004F40F09080FFF79EFADC
:103ED00061684A0802EB4003B3FBF1F39BB2002098
:103EE00023F00F02C3F3420321681343CB6038BDB4
:103EF000202900F0A88030293DD1B2F5004F40F0D4
:103F000092806068430803F58033A5E05D498B42E9
:103F10000ED101F5F631D1F8901001F0C001402921
:103F200000F09D80CCD9802900F08D80C029E3E786
:103F300055498B4210D101F5F431D1F8901001F4BC
:103F40004071B1F5807F00F08A80B9D9B1F5007F6A
:103F500079D0B1F5407FCFE74C498B4213D101F5C1
:103F60009231D1F8901001F44061B1F5806F76D0B4
:103F700003D800295CD0102178E7B1F5006F62D03A
:103F8000B1F5406FB8E742498B420FD101F5E031FE
:103F9000D1F8901001F44051B1F5805F5FD08FD916
:103FA000B1F5005F4FD0B1F5405FA5E739498B42CD
:103FB00044D101F5DE31D1F8901001F44041B1F562
:103FC000804F4CD07FF67CAFB1F5004F3BD0B1F5C0
:103FD000404F91E70120002382E7082931D8DFE82C
:103FE00001F0051114301F3030302200FFF70EFAB7
:103FF000D4E9002300EB5300B0FBF3F080B2D060B3
:10400000002074E7FFF71AFAF2E761684A0802F540
:10401000740202F51052B2FBF1F292B2DA60EFE7ED
:10402000FFF710F9E4E761684A0802F50042F2E799
:10403000B2F5004FE6D1FFF701FA49E7B2F5004FBC
:10404000C8D0012053E7B2F5004FDED160684308C5
:1040500003F1F47303F59043B3FBF0F33EE7B2F5DD
:10406000004FDDD1FFF7EEF832E700BFF369FFEF55
:10407000001001401CA400080044004020A40008D7
:1040800000480040004C0040005000400014014037
:1040900000780040007C0040436ADA0710B506D57E
:1040A0000168846A4A6822F4003222434A609C070D
:1040B00006D50168C46A4A6822F4803222434A6005
:1040C000590706D50168046B4A6822F4802222430E
:1040D0004A601A0706D50168446B4A6822F4004218
:1040E00022434A60DC0606D50168846B8A6822F4A4
:1040F000805222438A60990606D50168C46B8A689B
:1041000022F4005222438A605A0610D50168046CDA
:104110004A68B4F5801F22F4801242EA04024A6021
:1041200005D14A68446C22F4C00222434A601B064F
:1041300006D50268816C536823F400230B43536057
:1041400010BD37B500250446C566FEF70DFE226892
:1041500003461268120709D42023002084F869302E
:1041600084F8680084F86A3003B030BD6FF07E4296
:104170004FF40011204600922A46FFF71EFE002849
:10418000EAD00320F0E710B5044660B390F8693038
:1041900003F0FF021BB980F86820FFF70DFE2268CC
:1041A0002423204684F86930136823F00103136048
:1041B000FFF734FE012816D0636A13B12046FFF7DB
:1041C0006BFF236820465A6822F490425A609A682E
:1041D00022F02A029A601A6842F00102BDE81040FB
:1041E0001A60FFF7AEBF012010BD0000174A184942
:1041F000936803F00C03042B10B50DD0082B0DD0E1
:10420000144B0B60114B144A9B68C3F30313D25C2D
:104210000B68D3400B6010BD104BF2E75468506838
:104220006302526800F03F0048BF0C4BC2F3881293
:1042300058BF084BB3FBF0F35343044A5268C2F330
:10424000014201325200B3FBF2F3DAE700380240D8
:10425000AC0200200024F4002DA4000800127A0013
:10426000F0B50E46154689B0044686493046FCF73F
:1042700007F9074684492846FCF702F90146384603
:10428000FCF7E0F82060013004D13D227F498048EE
:10429000FCF7E0FA23687F4A934200F0B58021D80A
:1042A000A2F50062934200F0878002F5806293429B
:1042B00000F09680A2F5006293421DD1764B1A6AF7
:1042C00042F400321A621A6A22F400321A621A6C3C
:1042D00042F400321A641B6C03F400330193019B17
:1042E000012367E06D4A934200F0B68034D8A2F50E
:1042F0008062934200F09C8062493046FCF784F86B
:1043000028466149FCF780F8701C03D00121304633
:1043100000F04AFC691C03D00121284600F044FC4F
:1043200000234FF41652268320466583C4E90223F6
:10433000C4E9043300F08CFC2268594B9A4240F0E7
:104340009F80584B0122214657481A60442209B0E9
:10435000BDE8F04001F074BC544A934217D002F516
:1043600080629342C8D14C4B5A6A42F020025A6292
:104370005A6A22F020025A625A6C42F020025A64B1
:104380005B6C03F020030593059B052312E0424B71
:104390005A6A42F010025A625A6A22F010025A62B5
:1043A0005A6C42F010025A645B6C03F010030093E5
:1043B000009B002363609FE7374B1A6A42F4802218
:1043C0001A621A6A22F480221A621A6C42F480225B
:1043D0001A641B6C03F480230293029B0223E9E717
:1043E0002D4B1A6A42F400221A621A6A22F4002241
:1043F0001A621A6C42F400221A641B6C03F4002344
:104400000393039B0323D5E7234B1A6A42F48012DC
:104410001A621A6A22F480121A621A6C42F480122A
:104420001A641B6C03F480130493049B0423C1E7F8
:10443000194B1A6A42F080421A621A6A22F08042CC
:104440001A621A6C42F080421A641B6C03F08043BB
:104450000693069B0623ADE70F4B1A6A42F0004213
:104460001A621A6A22F000421A621A6C42F0004282
:104470001A641B6C03F000430793079B072399E71B
:1044800009B0F0BD80A30008F0A2000845A4000810
:1044900082A400080050004000380240007C004028
:1044A00000480040D8140020385700200010014078
:1044B000816000F0CDBB000038B504464568204659
:1044C00000F0FCFB0028FAD07023034A6B43D3585A
:1044D000586AC0F3080038BD7C57002070B5054607
:1044E0000C464668284600F0F9FB0028FAD07023F5
:1044F000034AC4F308047343D3589C6270BD00BFE1
:104500007C57002043692DE9F0410D46D907044648
:1045100028D58168334F826839408368324E3348EA
:10452000B94202EA060203EA000301D10127A760AB
:10453000B24202D14FF48076A660834202D14FF49A
:104540008030A0602748814205D027498A4202D0A6
:10455000264A934206D1264B0121264A1B6852F86F
:1045600025009847E2686369920708D09F0706D53F
:104570001F4B00211F4A1B6852F825009847A1696C
:1045800062698E0763690AD5900508D5190406D5B6
:10459000174B0521174A1B6852F825009847A76951
:1045A000666917F00407626906F4806609D046B1AF
:1045B000120406D50E4B07210E4A1B6852F825003F
:1045C000984763695FB156B11B0408D5084B0221B7
:1045D000084A1B6852F82500BDE8F0411847BDE8BD
:1045E000F08100BF03000004000300080000031076
:1045F000E8140020DC14002000210148FFF782BFEE
:1046000000640040FFF7F8BFFFF7F6BF0121014843
:10461000FFF778BF00680040FFF7F8BFFFF7F6BF6D
:1046200002210148FFF76EBF00340040FFF7F8BFDA
:10463000FFF7F6BF00B58DB00A2800F28E80DFE8E4
:1046400000F00614202C3844505C68748000454B00
:1046500045481A6B42F001021A631B6B03F0010319
:104660000193019B0DB05DF804FB3E4B3F481A6B74
:1046700042F002021A631B6B03F002030293029BD7
:10468000F0E7384B3A481A6B42F004021A631B6B8E
:1046900003F004030393039BE4E7324B35481A6BA2
:1046A00042F008021A631B6B03F008030493049B97
:1046B000D8E72C4B30481A6B42F010021A631B6B80
:1046C00003F010030593059BCCE7264B2B481A6B90
:1046D00042F020021A631B6B03F020030693069B33
:1046E000C0E7204B26481A6B42F040021A631B6B4E
:1046F00003F040030793079BB4E71A4B21481A6B5A
:1047000042F080021A631B6B03F080030893089B3E
:10471000A8E7144B1C481A6B42F480721A631B6B97
:1047200003F480730993099B9CE70E4B17481A6B9F
:1047300042F400721A631B6B03F400730A930A9B22
:1047400090E7084B12481A6B42F480621A631B6BA5
:1047500003F480630B930B9B84E70E48FCF758F936
:1047600000207FE7003802400000024000040240C1
:1047700000080240000C02400010024000140240F9
:1047800000180240001C02400020024000240240A9
:10479000002802409EA40008431C10B5044604D122
:1047A000742206490648FCF755F82046002100F01F
:1047B00061F904F00F040120A04010BDBFA400085F
:1047C000E8A4000870B54B1C04460E46218216D0A2
:1047D000C1F30310FFF72EFF05463046FFF7DCFF5D
:1047E000238A074A03F00F036561206052F82330E3
:1047F000A36105F1100318356360C4E9025570BD6B
:10480000FCA40008B0F9100000F0CEB910B5D0E952
:10481000054371B9216893FAA3F2B2FA82F2032038
:10482000520000FA02F221EA020293FAA3F3226094
:1048300010BD226893FAA3F1B1FA81F193FAA3F3C0
:1048400003204900B3FA83F300FA01F15B0022EA86
:104850000102012101FA03F313432360E8E700009A
:1048600070B5134C23681A69950707D5DA68900765
:1048700004D56FF002021A61FBF7DAFF23681A69A8
:10488000510713D5DA68520710D56FF00402094EAC
:104890001A615D6A3368EB1AB3F57A7F06D3FEF7C7
:1048A0005BFA236805F57A729A63356070BD00BFC4
:1048B000FC5A0020EC14002030B589B0284C01A926
:1048C00003A8FEF7D3FDFEF7A1FD264B01901A6C5D
:1048D00042F008021A641A6C02F008020292029A6C
:1048E0001A6A42F008021A621A6A22F008021A6270
:1048F000A3F50B33069A23604FF0FF33E3601A4BA6
:104900005ABB0025B0FBF3F001382561A56060605B
:104910001348C4E90555FFF70FFA144B144A29460A
:104920009B680F48C3F808214FF48022114B5A604E
:10493000FFF728FA04210A48FFF724FA23680E4AF1
:104940002846596A1160126802F57A729A63DA6829
:1049500042F00402DA6009B030BD4000D1E700BF88
:10496000FC5A00200038024040420F0000ED00E0F9
:104970006148000800E100E0EC140020034B1A68D5
:10498000D36823F00403D360704700BFFC5A0020B3
:10499000034B1A68D36843F00403D360704700BF29
:1049A000FC5A0020F8B5FFF721FCFEF7C3F9BFF36E
:1049B0004F8FBFF36F8F1F4B0021C3F85012BFF30F
:1049C0004F8FBFF36F8F5A6942F400325A61BFF3C1
:1049D0004F8FBFF36F8FC3F88410BFF34F8FD3F89F
:1049E000802043F6E076C2F3C904C2F34E32A50735
:1049F000520102EA060C284621464CEA000701391A
:104A000000F14040C3F860724F1CF6D1203A12F119
:104A1000200FEED1BFF34F8F5A6942F480325A61B2
:104A2000BFF34F8FBFF36F8FFEF75EF9BDE8F8401D
:104A3000FFF7DCBB00ED00E030B5C36891FAA1F4EC
:104A4000B4FA84F491FAA1F10325B1FA81F164007A
:104A5000490005FA04F402FA01F123EA04031943B8
:104A6000C16030BD012A02D0022A18BF0022FFF720
:104A7000E3BF00002DE9F0410E46411C044604D17D
:104A80003E2245494548FBF7E5FE04F00F08444B3C
:104A9000C4F3031006F0070753F82850FFF7CAFDC8
:104AA0000446836895FAA5F1B1FA81F195FAA5F269
:104AB00003204900B2FA82F200FA01F1520023EA1F
:104AC0000103022101FA02F21343A36087425CD87A
:104AD000DFE807F0601D021DB8F1070FC6F30320E1
:104AE0003DD9626A2B0A93FAA3F1B1FA81F193FAE4
:104AF000A3F34FF00F0CB3FA83F389009B000CFA79
:104B000001F100FA03F322EA0102134363623B4618
:104B1000226895FAA5F0B0FA80F095FAA5F14FF069
:104B2000030CB1FA81F14000013F49000CFA00F09A
:104B3000012F03FA01F322EA000243EA0203236091
:104B400005D8636832074CBF2B43AB436360C6F3A1
:104B5000011229462046BDE8F041FFF783BF226AD3
:104B600095FAA5F3B3FA83F395FAA5F14FF00F0C7C
:104B7000B1FA81F19B0089000CFA03F322EA0302E7
:104B800000FA01F313432362C1E767220249054893
:104B9000FBF760FE0023BBE73CA50008E8A4000883
:104BA000FCA40008CF9E0008431C70B506460D46C5
:104BB00004D188221B491C48FBF74CFE06F00F026B
:104BC0001A4BC6F3031053F82240FFF733FD016878
:104BD00004FB04F202EB42030B40B3FBF2F3013B94
:104BE000012B05D8EB1E022B436809D823434360F1
:104BF000032D08D101222146BDE87040FFF732BFE6
:104C000023EA04034360012DF4D0052D01D0022DC9
:104C100001D10222EFE721460022BDE87040FFF7F4
:104C20000BBF00BF3CA50008E8A40008FCA40008D6
:104C300008B50548FFF700F820B10448BDE8084072
:104C4000FBF7E6BE08BD00BFF014002063A5000816
:104C50004368702217495A4310B5046853185450DA
:104C600082685A60C2689A600269DA6042691A61B1
:104C70000022A3F85220A3F85020A3F85A20A3F84A
:104C80005820C3E90622B0F91A2001320AD10822BD
:104C90005A611846FFF777FA58B10748BDE8104047
:104CA000FBF7B6BEB0F9182001320CBF04220C226B
:104CB000EEE710BD7C5700207AA5000842687023FB
:104CC0005343054AD358DA69120701D508221A62FC
:104CD000D869C0F3401070477C57002042687023A9
:104CE0005343034AD358D869C0F3C010704700BF7C
:104CF0007C57002008B5FBF727FEFFF73FFE012198
:104D00000020FEF783F8FFF743FEBDE80840FBF7FD
:104D100047BE000010B5FBF717FEFFF72FFE00F0AF
:104D20001DF8012104460846FEF780F8FFF730FE23
:104D3000FBF736FEFDF7D8FF064B5C6203F50B333D
:104D40001B6F13F4407F03D0BDE81040FFF770BF26
:104D500010BD00BF000C004070470000014B586AB6
:104D6000704700BF000C0040054B1B68DA6822F05A
:104D70000202DA605863DA6842F00202DA607047D1
:104D8000FC5A0020034B1A68536943F00203536135
:104D9000704700BFFC5A0020034B1A68D36823F009
:104DA0000203D360704700BFFC5A0020024B6FF033
:104DB00002021B681A617047FC5A002010B502FB02
:104DC00001F1FBF73FFD0446D8B150F8042C22F066
:104DD0000302043A242A1DD8132A14D900231B2ABB
:104DE000C0E900331BD9242AC0E902330ABFC0E955
:104DF000043300F1100200F118020023C2E900336D
:104E00009360204610BD02460023C2E90033936040
:104E1000204610BD002101F011F8204610BD00F120
:104E20000802F1E7014B1868704700BFB00200208C
:104E300070B539B105460C4608B1836B83B3B4F93C
:104E40000C3013B90026304670BD2146284600F0CC
:104E50003BF8E36A064633B1E169284698470028E3
:104E6000B8BF4FF0FF36A3891B0620D4216B41B198
:104E700004F14003994202D02846FBF7E7FC0023E7
:104E80002363616C21B12846FBF7E0FC00236364D7
:104E900000F0D0F90023A38100F0CEF9304670BDB8
:104EA00000F0C4F9B4F90C30002BCBD0CDE7216968
:104EB0002846FBF7CBFCD9E7024B01461868FFF701
:104EC000B7BF00BFB0020020B1F90C309AB22DE993
:104ED000F0410C461107804644D4626843F40063F5
:104EE000002AA38159DDA56A002D53D000229BB270
:104EF000D8F80060E169C8F8002013F4805240F04F
:104F0000838001234046A847421C4AD0A389A56A52
:104F1000E1695B0705D56268236B801A0BB1E36B0F
:104F2000C01A024600234046A847471C45D0B4F9A2
:104F30000C302269226023F400630022A381DB0489
:104F4000626000D52065216BC8F8006011B304F1E0
:104F50004003994202D04046FBF778FC00202063D2
:104F6000BDE8F0812669AEB12568266092070CBFC6
:104F700063690023AD1BA3600AE02B463246676AD3
:104F8000E1694046B8470028A5EB000506442BDD43
:104F9000002DF2DC0020BDE8F081E26B002AA2DCEB
:104FA000F8E7D8F80030002BB0D01D2B01D0162B1D
:104FB0002CD1C8F800600020EDE7D8F800101D29BA
:104FC0001AD8154BB4F90C20CB40DB4313F0010386
:104FD00014D1256922F40062C4E90053D504A281EA
:104FE000B1D50029AFD1ADE7A38943F04003A38138
:104FF0004FF0FF30BDE8F081B4F90C2042F04002E0
:10500000A2814FF0FF30C6E7206D82E7A38943F00D
:105010004003A381BFE700BF0100402010B5044654
:1050200082B008B1836B23B1B1F90C0048B902B06A
:1050300010BD019100F0FAF80199B1F90C000028B7
:10504000F5D0204602B0BDE81040FFF73DBF00BFDD
:1050500020B1054B01461868FFF7E0BF034B044938
:10506000186800F087BA00BFB002002094A50008BD
:105070001D50000800207047014900F07BBA00BFB6
:10508000314E00082DE9F84F45682D4BC3630024CD
:10509000074600F53B7204230321C0F8E412C0F870
:1050A000E822C0F8E0422146EB6005F15C006C6646
:1050B000C5E90044AC60C5E90444AC61082200F0D5
:1050C000BDFEDFF888B0BE68DFF884A0DFF884900A
:1050D000DFF884801B4BC5F82C80C5E9075BC5E968
:1050E00009A92146F360082206F15C007466C6E94E
:1050F0000044B460C6E90444B46100F09FFEFD685A
:10510000114BC6F82C80C6E9076BC6E909A92146F0
:10511000EB606C66C5E90044AC60C5E90444AC6171
:1051200005F15C00082200F089FE0123C5E9075B58
:10513000C5E909A9C5F82C80BB63BDE8F88F00BF9D
:1051400079500008090001001200020051620008B5
:1051500079620008B5620008D56200080020704737
:1051600070B54A1E682505FB02F50E4605F174016F
:10517000FBF768FB044640B100210C30666005F186
:1051800068022160A06000F059FE204670BD00BF9B
:105190001F4B70B51D68AB6B06464BB305F53875F4
:1051A000D5E90134013B05D51EE0013B5A1C04F151
:1051B000680419D0B4F90C20002AF6D10025154B4B
:1051C0006566C4E90055A560C4E90455A561294692
:1051D000E360082204F15C0000F030FEC4E90C55E5
:1051E000C4E91155204670BD286828B10546D7E7A7
:1051F0002846FFF747FFD1E704213046FFF7B0FF0D
:1052000028600028F2D10C2304463360EAE700BF8F
:1052100094A500080100FFFF024B0349186800F045
:10522000A9B900BF94A50008314E0008836B03B1F3
:10523000704727E7704700BF704700BF704700BF47
:10524000704700BF024B0349186800F06DB900BFFA
:10525000B002002075500008024B0349186800F0A6
:1052600063B900BFB00200205D51000838B50A4C98
:105270000A4D641BA4100AD004F18043013B05EBE6
:105280008305013C55F804399847002CF9D1BDE855
:10529000384004F0A7BD00BF6C0C0020680C002053
:1052A000F8B5244F0C460646FBF7B7FCBB685D68B3
:1052B000C4F57E610F3125F00305294421F47F6197
:1052C00021F00F01A1F58054B4F5805F07DB0021C8
:1052D000304600F0ABFFBB682B44984204D0304608
:1052E000FBF79FFC0020F8BD6142304600F09EFFB6
:1052F00001300DD0104BBA6819682D1B45F001051F
:105300003046091B55601960FBF78BFC0120F8BD86
:105310000021304600F08AFFBA68831A0F2BDEDDC9
:10532000064C0549246843F00103001B53600860E4
:10533000D5E700BF4C08002014150020540C0020B5
:10534000002953D0F8B50C460646FBF766FC54F826
:1053500004CC714F2CF00101A4F108056B18B8685A
:105360005A68984222F0030253D01CF0010F5A6091
:1053700003EB02003BD154F808CC4068A5EB0C05C8
:1053800007F1080EAC687445614400F0010075D067
:10539000D5F80CC0C4F80CC0CCF8084060B341F09C
:1053A00001036B606950B1F5007F50D34B0A042BA9
:1053B00070D88B0903F13904E40003F1380238197D
:1053C0003B590838984278D05A6822F003028A4242
:1053D00071D99B689842F7D1C368C5E902039D6003
:1053E000C5603046BDE8F840FBF71BBC704740681D
:1053F00000F001000028D2D19868484C1144A04226
:1054000041F0010262D0DB68C36098606A60695055
:10541000C9E71CF0010F0A4407D154F8083CED1A03
:105420001A44D5E90213CB6099603D4B1B6842F0EA
:10543000010193426960BD6004D83A4B3046196857
:10544000FFF72EFF3046BDE8F840FBF7EABBC9087E
:1054500078684A1C012389108B40034307EBC20183
:1054600057F832007B600839C5E9020147F832502D
:10547000C5603046BDE8F840FBF7D3BB002845D1F6
:105480000A44D3E9021342F00100CB6099606860DE
:10549000AA50D7E7142B08D9542B1ED80B0B03F1B5
:1054A0006F04E40003F16E0289E703F15C04E40099
:1054B00003F15B0283E718468EE7931079680122B7
:1054C00002FA03F30B437B60034686E7C7E9045502
:1054D000C5E902006A606950B4E7B3F5AA7F06D84F
:1054E000CB0B03F17804E40003F1770267E740F2A5
:1054F0005452934206D88B0C03F17D04E40003F16F
:105500007C025CE74FF47E747E2258E741F0010292
:105510006A60196096E700BF4C080020540800201C
:10552000580C0020101500202DE9F04110F53877B7
:105530001BD088460026D7E90154013D0FD4A3892A
:10554000012B05F1FF35204605D9B4F90E300133A2
:1055500001D0C04706436B1C04F16804EFD13F68DB
:10556000002FE8D13046BDE8F0813E463046BDE828
:10557000F08100BF2DE9F84310F538771FD0884639
:1055800006464FF00009D7E90154013D11D4A38923
:10559000012B05F1FF352146304606D9B4F90E300E
:1055A000013302D0C04749EA00096B1C04F16804CA
:1055B000EDD13F68002FE6D14846BDE8F883B946F3
:1055C0004846BDE8F88300BF70B50D4E0D4D761B03
:1055D000B61006D00024013455F8043B9847A64283
:1055E000F9D1094E094D761B04F0F6FBB61006D032
:1055F0000024013455F8043B9847A642F9D170BD08
:105600005C0C00205C0C0020680C00205C0C00206E
:105610002DE9F04F01F10B05162D83B0064623D876
:10562000102900F2B980FBF7F8FA102518230220A0
:10563000D14F3B44A3F108025C68944200F06981B9
:10564000636823F003032344D4E902515A68E960F4
:1056500042F001028D6030465A60FBF7E2FA0834EE
:10566000204603B0BDE8F08F35F0070500F19480C7
:10567000A94200F29180FBF7D0FAB5F5FC7FC0F0AB
:1056800077816B0A00F08F80042B00F24981AB090F
:1056900003F1390003F1380CC300B74F3B44A3F1C9
:1056A00008015C68A14206D10CE0002A80F220814A
:1056B000E468A14206D0636823F003035A1B0F2A53
:1056C000F3DD60463C69DFF8B4C2644571D06368BD
:1056D00023F003035A1B0F2A00F33881002AC7E97D
:1056E00004CC80F22981B3F5007F80F06381DB0870
:1056F000591C7A6857F83180C4F808804FF0010EC1
:105700009B100EFA03F307EBC10E1343AEF1080230
:10571000E2607B6047F83140C8F80C4082100124F9
:1057200094409C424BD81C4206D120F003006400F8
:105730001C4200F10400FAD007EBC009CE468046B7
:10574000DEF80C309E4507D11CE1002A80F223814F
:10575000DB689E4500F01681596821F003014A1B61
:105760000F2AF2DDD3E9028E5C1945F001055D6078
:1057700042F00105C8F80CE03046CEF80880C7E9D1
:105780000444C4E902CC65605A500193FBF749FA1E
:10579000019B03F1080463E700240C2320463360D7
:1057A00003B0BDE8F08F4FF4007340204FF03F0C82
:1057B00073E77B688210012494409C42B3D9BC6893
:1057C000636823F00309A94503D3A9EB05030F2B55
:1057D0007EDCDFF8ACA1D7F80824DAF8003001321B
:1057E00005EB030800F0428108F5805808F10F0826
:1057F00028F47F6828F00F084146304600F016FD77
:10580000B0F1FF3F834600F0FE8004EB09018142C6
:1058100000F2F780DAF804304344CAF8043000F0AC
:105820004681D7F8082401321BBFABEB01015B189E
:10583000C7F808B4CAF804301BF0070300F02C8145
:10584000C3F10802C3F5805393440833D844C8F326
:105850000B08A3EB08084146304600F0E7FC431C68
:1058600000F04081A0EB0B02424442F00102DAF862
:105870000430C7F808B04344BC42CBF80420CAF84F
:10588000043014D0B9F10F0F40F228816168A9F1FA
:105890000C0222F0070201F00101A01811434FF0A1
:1058A000050C0F2A6160C0E901CC00F23481DAF8FE
:1058B0002C20BC68DAF830109342626888BFCAF8BE
:1058C0002C308B4222F0030288BFCAF830309EE0B1
:1058D000621943F0010345F0010565603046BA6086
:1058E0005360FBF79EF90834204603B0BDE8F08F03
:1058F0002344E1685A68A56842F00102E960304635
:105900008D605A60FBF78DF90834204603B0BDE87E
:10591000F08FDC68A34208BF02303FF4D3AE8FE6BD
:10592000142B68D9542B00F2A4802B0B03F16F00C9
:1059300003F16E0CC300B0E6234430465A6842F0CF
:1059400001025A600834FBF76CF989E6611945F0E9
:10595000010E42F00105C4F804E03046C7E9041125
:10596000C1E902CC4D60E250FBF75BF9083477E601
:10597000E80805F108035BE64C0800205408002005
:105980001015002008F1010818F0030F0EF1080EA1
:105990007FF4D6AE52E019441C464A68DB6854F8DE
:1059A000085F42F001024A603046EB609D60FBF701
:1059B00038F955E65A0A042A35D9142A6FD802F163
:1059C0005C01C9005B3207EB010E7958AEF1080E9D
:1059D0008E4558D04A6822F003029A4202D989685B
:1059E0008E45F7D1D1F80CE07B68C4E9021ECEF8F1
:1059F0000840CC6092E603F15C0003F15B0CC3004D
:105A00004BE6BC4272D0BC68626822F00302954249
:105A1000A2EB050302D80F2B3FF75AAF3046FBF736
:105A200000F900241CE69A0902F13901C900383254
:105A3000C9E7D9F80090994540F0838010F0030F32
:105A4000A9F1080300F1FF30F3D17B6823EA0403D6
:105A50007B6064009C423FF6B2AE1CB9AFE66400C6
:105A600008F104081C42FAD0404665E608F1100827
:105A7000C2E6B3F5AA7F26D8EB0B03F1780003F159
:105A8000770CC30009E67B6892104FF0010808FA12
:105A900002F213437B60A8E74FF48053D6E6542A02
:105AA0002AD81A0B02F16F01C9006E328BE7C1F3DD
:105AB0000B02002A7FF4B5AE09EB0802B96842F088
:105AC00001024A60F3E640F2545293421DD8AB0CF7
:105AD00003F17D0003F17C0CC300DEE50123CBF86C
